S00D000074696D65722E73726563F6
S11300000C9434000C943E000C943E000C943E007E
S11300100C943E000C943E000C943E000C943E0064
S11300200C943E000C943E000C943E000C943E0054
S11300300C943E000C943E000C943E000C943E0044
S11300400C943E000C943E000C943E000C943E0034
S11300500C943E000C943E000C943E000C943E0024
S11300600C943E000C943E0011241FBECFEFD8E048
S1130070DEBFCDBF0E9445000C9453000C940000D9
S113008085B5816085BD16BC089587B1816087B947
S11300900E94400086B58F3BE8F398B181E0892740
S10D00A088B916BCF7CFF894FFCF1F
S9030000FC
