S017000073696D756C61646F2074696D6572302E737265633E
S11300000C9434000C943E000C943E000C943E007E
S11300100C943E000C943E000C943E000C943E0064
S11300200C943E000C943E000C943E000C943E0054
S11300300C943E000C943E000C943E000C943E0044
S11300400C943E000C943E000C943E000C943E0034
S11300500C943E000C943E000C943E000C943E0024
S11300600C943E000C943E0011241FBECFEFD8E048
S1130070DEBFCDBF0E944D000C9450000C940000D4
S113008084B5836884BD85B58B6085BD8CE487BDEC
S11300908AB180648AB9789408950E944000FFCFA1
S10700A0F894FFCFFE
S9030000FC
