S01D000070726F6A65746F2D70726F672D68617264776172652E73726563A4
S11300000C9434000C9449000C9449000C9449005D
S11300100C9449000C9449000C9449000C94490038
S11300200C9449000C9449000C9449000C9422014E
S11300300C9449000C9449000C9449000C94490018
S11300400C9449000C9449000C9449000C94490008
S11300500C9449000C9449000C9449000C944900F8
S11300600C9449000C94490011241FBECFEFD8E032
S1130070DEBFCDBF11E0A0E0B1E0E2E2F3E002C0F8
S113008005900D92A230B107D9F70E9459010C9442
S11300908F010C94000087B1816087B987B18260B9
S11300A087B987B1846087B988B1816088B988B11C
S11300B0826088B988B1846088B9089584B1806801
S11300C084B984B1806184B98AB180628AB984B107
S11300D0806284B984B1816084B98AB180648AB948
S11300E084B1816B84B98AB180668AB9089584B178
S11300F08D7F84B984B18B7F84B98AB18F7E8AB9AC
S1130100089584B1886084B9089580E480937C0064
S113011087E880937A0080E180937E000895ECE77D
S1130120F0E09081907F8F70892B8083EAE7F0E084
S113013080818064808380917A0086FDFCCF8091E9
S1130140780090917900089580910001833020F027
S113015088B1876088B90895823039F488B186609F
S113016088B988B18E7F88B90895813039F488B10F
S1130170846088B988B18C7F88B9089588B1887FF4
S113018088B908954C9B0AC085B1806A85B985B148
S11301908E7E85B988EC88BD87BD089518BC17BCD0
S11301A085B18F7585B90895199B0AC085B18161A0
S11301B085B985B18F7585B988EC88BD87BD0895EB
S11301C018BC17BC85B18F7585B908951A9B0AC0F0
S11301D085B1806A85B985B18E7E85B980E888BD90
S11301E087BD089518BC17BC85B18F7585B908956E
S11301F04C9B03C00E94C2000895199B03C00E9437
S1130200D40008951A9B03C00E94E600089517BC09
S113021018BC85B18E7485B90895E1E8F0E0808159
S11302208860808388E09DE39093890080938800B0
S1130230AFE6B0E08C9182608C938081856080838E
S1130240789408951F920F920FB60F9211248F93F2
S11302509F9395B188E0892785B99F918F910F90DD
S11302600FBE0F901F9018951092C50087E68093DB
S1130270C40088E18093C10086E08093C2000895A1
S11302808091C0008823E4F78091C60008950E94FD
S11302904001863441F018F4823441F008958236E6
S11302A029F0863629F40E94C20008950E94D400E1
S11302B008950E944B000E945E000E9477000E94F5
S11302C081000E94850083EA84BD82E085BD17BC5D
S11302D018BC0E940D010E9434010E94470184E071
S11302E00E948F008D3B924028F085B1886085B9CB
S11302F081E001C080E0882339F0809100018823E7
S113030019F08150809300010E94A4000E94F8001B
S11303108091C00088231CF70E944701E0CFF89425
S1050320FFCF09
S10503220300D2
S9030000FC
