S01D000070726F6A65746F2D70726F672D68617264776172652E73726563A4
S11300000C9465000C947A000C947A000C947A0099
S11300100C947A000C947A000C947A000C947A0074
S11300200C947A000C947A000C947A000C9452018B
S11300300C947A000C947A000C947A000C947A0054
S11300400C947A000C947A000C947A000C947A0044
S11300500C947A000C947A000C947A000C947A0034
S11300600C947A000C947A00BC01CE01CE01CE012E
S1130070B601CE01CE01CE01CE01CE01C201CE0128
S1130080CE01CE01CE01CE01C801CE01CE01CE01FA
S1130090CE01CE01CE01CE01CE01CE01CE01CE01E4
S11300A0CE01CE01CE01CE01BC01CE01CE01CE01E6
S11300B0B601CE01CE01CE01CE01CE01C201CE01E8
S11300C0CE01CE01CE01CE01C80111241FBECFEF57
S11300D0D8E0DEBFCDBF11E0A0E0B1E0EEEBF4E08C
S11300E002C005900D92AE30B107D9F70E94D1013C
S11300F00C945D020C94000087B1816087B987B1CC
S1130100826087B987B1846087B988B1816088B912
S113011088B1826088B988B1846088B9089584B14F
S1130120806884B984B1806184B98AB180628AB9F3
S113013084B1806284B984B1816084B98AB18064F5
S11301408AB984B1816B84B98AB180668AB9089509
S113015084B18D7F84B984B18B7F84B98AB18F7E59
S11301608AB9089584B1886084B9089580E480933D
S11301707C0087E880937A000895ECE7F0E09081B2
S1130180907F8F70892B8083EAE7F0E08081806420
S1130190808380917A0086FDFCCF809178009091D5
S11301A07900089580910001833020F088B1876040
S11301B088B90895823039F488B1866088B988B1E5
S11301C08E7F88B90895813039F488B1846088B904
S11301D088B18C7F88B9089588B1887F88B90895DB
S11301E085B1806A85B985B18E7E85B988EC88BD74
S11301F087BD089585B1816185B985B18F7585B94C
S113020088EC88BD87BD089585B1806A85B985B1BC
S11302108E7E85B980E888BD87BD089585B18063E9
S113022085B985B18E7785B988EC88BD87BD089579
S113023085B1816885B985B18F7C85B988EC88BD25
S113024087BD089517BC18BC85B18E7485B908950F
S11302504C9B03C00E94F0000895199B03C00E94A8
S1130260FA0008951A9B03C00E940401089517BC64
S113027018BC85B18E7485B90895E1E8F0E08081F9
S11302808860808388E09DE3909389008093880050
S1130290AFE6B0E08C9182608C938081856080832E
S11302A0789408951F920F920FB60F9211248F9392
S11302B09F9395B188E0892785B99F918F910F907D
S11302C00FBE0F901F9018951092C50087E680937B
S11302D0C40088E18093C10086E08093C200089541
S11302E08091C0008823E4F78091C600089590911E
S11302F0C00095FFFCCF8093C6000895CF93DF9391
S1130300EC0103C021960E94770188818111FACF04
S1130310DF91CF910895CF93DF93CDB7DEB72A97BE
S11303200FB6F894DEBF0FBECDBFAC0161E071E043
S1130330CE0101960E941D02CE0101960E947E010B
S11303402A960FB6F894DEBF0FBECDBFDF91CF91D2
S113035008950E94700190E0FC01E254F109E13338
S1130360F105E0F4EC5CFF4F0C9417020E94F000DE
S11303708BB184608BB908950E94FA008BB18460BC
S11303808BB908950E940E018BB184608BB90895D6
S11303900E9418018BB184608BB908950E942201D8
S11303A008950E947C000E948F000E94A8000E9471
S11303B0B2000E94B60083EA84BD82E085BD17BC0A
S11303C018BC0E943D010E9464018AB184608AB90C
S11303D084E00E94BD00EC0184E091E00E947E0173
S11303E0CE010E948B018BE091E00E947E01CD3210
S11303F0D14028F08BB184608BB981E004C08BB10B
S11304008B7F8BB980E0882339F0809100018823A9
S113041019F08150809300010E94D2000E942801AB
S11304208091C0008823A4F60E94A901D1CFEE0FC9
S1130430FF1F0590F491E02D09944532510520F4F5
S1130440423010F00C942802FB011082CB01089575
S1130450BB274A3031F4992322F4BDE2909581956B
S11304609F4F0C943402BB27FB015527AA27880F02
S1130470991FAA1FA41710F0A41B83955051B9F714
S1130480A05DAA3308F0A95DA193009779F7B11193
S1130490B1931192CB010C944D02DC01FC01672F46
S11304A071917723E1F7329704C07C916D93708347
S11104B06291AE17BF07C8F30895F894FFCF0A
S11104BE032575004C4452203D20000D0A0019
S9030000FC
