S01D000070726F6A65746F2D70726F672D68617264776172652E73726563A4
S11300000C9465000C9482000C9482000C94820081
S11300100C9482000C9482000C9482000C94810154
S11300200C9482000C9482000C9482000C94530172
S11300300C9482000C9482000C9482000C94820034
S11300400C9482000C9482000C9482000C94820024
S11300500C9482000C9482000C9482000C94820014
S11300600C9482000C948200750287028702870236
S11300706F02870287028702870287027B02870258
S1130080870287028702870281028702870287022A
S11300908702870287028702870287028702870214
S11300A08702870287028702750287028702870216
S11300B06F02870287028702870287027B02870218
S11300C08702870287028702810211241FBECFEFB5
S11300D0D8E0DEBFCDBF11E0A0E0B1E0EEE3F6E092
S11300E002C005900D92AE30B107D9F721E0AEE021
S11300F0B1E001C01D92A431B207E1F70E948A0267
S11301000C941D030C94000087B1816087B987B1FA
S1130110826087B987B1846087B988B1816088B902
S113012088B1826088B988B1846088B9089584B13F
S1130130826084B984B1846084B98AB180628AB9E6
S113014084B1886084B984B1806184B98AB18064DF
S11301508AB984B18E6184B98AB180668AB90895F6
S113016087B1886087B9089580E480937C0087E82C
S113017080937A000895ECE7F0E09081907F8F708F
S1130180892B8083EAE7F0E080818064808380911A
S11301907A0086FDFCCF80917800909179000895D3
S11301A080910001833020F088B1876088B9089578
S11301B0823039F488B1866088B988B18E7F88B975
S11301C00895813039F488B1846088B988B18C7F0E
S11301D088B9089588B1887F88B9089585B18A60FF
S11301E085B985B18B7E85B988EC88BD87BD0895B6
S11301F085B1846185B985B1857F85B988EC88BD71
S113020087BD089585B18A6085B985B18B7E85B92E
S113021088EC88BD87BD089585B1826485B985B1B0
S1130220877E85B988EC88BD87BD089585B18261D4
S113023085B985B1837F85B988EC88BD87BD08956C
S113024017BC18BC85B1857A85B908954C9B03C049
S11302500E94EE000895189B03C00E94F8000895C0
S113026017BC18BC85B18E7485B90895E1E8F0E037
S113027080818860808388E09DE3909389008093E7
S11302808800AFE6B0E08C9182608C9380818560B9
S1130290808378940895EFE6F0E080818D7F8083F9
S11302A01092810008951F920F920FB60F9211249D
S11302B08F939F9380911301811104C098B188E0BA
S11302C0892788B99F918F910F900FBE0F901F902F
S11302D0189582E08093B00089EF8093B300E0E743
S11302E0F0E080818260808384E08093B100789420
S11302F00895E0E7F0E080818D7F80831092B10063
S113030008951F920F920FB60F9211242F933F93CB
S11303104F935F936F937F938F939F93AF93BF9309
S1130320EF93FF9380911301811105C080910E0119
S1130330882309F45BC080910F0190911001A09172
S11303401101B09112010196A11DB11D80930F01FD
S113035090931001A0931101B093120180911301A5
S1130360813001F580910F0190911001A09111014C
S1130370B0911201883E9340A105B105B8F10E94E5
S1130380200188B1877F88B90E944B0182E0809365
S1130390130110920F01109210011092110110928A
S11303A0120124C080911301823001F580910F0164
S11303B090911001A0911101B091120188389341DC
S11303C0A105B10598F01092130110920F0110923B
S11303D01001109211011092120110920E010E944C
S11303E0360188B1877F88B90E947901FF91EF9126
S11303F0BF91AF919F918F917F916F915F914F9139
S11304003F912F910F900FBE0F901F9018958091E0
S11304100E01811111C081E080930E0180931301BC
S113042010920F01109210011092110110921201FA
S11304300E9416010E94690108951092C50087E682
S11304408093C40088E18093C10086E08093C20059
S113045008958091C0008823E4F78091C600089530
S11304609091C00095FFFCCF8093C6000895CF9370
S1130470DF93EC0103C021960E9430028881811130
S1130480FACFDF91CF910895CF93DF93CDB7DEB745
S11304902A970FB6F894DEBF0FBECDBFAC0161E062
S11304A071E0CE0101960E94DD02CE0101960E9408
S11304B037022A960FB6F894DEBF0FBECDBFDF9188
S11304C0CF9108950E94290290E0FC01E254F109C1
S11304D0E133F105E0F4EC5CFF4F0C94D7020E9489
S11304E0EE008BB184608BB908950E94F8008BB143
S11304F084608BB908950E9402018BB184608BB92A
S113050008950E940C018BB184608BB908950E94F8
S1130510200108950E9484000E9497000E94B00068
S11305200E94B40083EA84BD82E085BD17BC18BC78
S11305300E9436010E941D0285B1817E85B985E045
S11305400E94BB00EC0184E091E00E943702CE01DE
S11305500E9444028BE091E00E943702CD32D140E8
S113056038F00E9407028BB184608BB981E004C02B
S11305708BB18B7F8BB980E0882339F080910001A7
S1130580882319F08150809300010E94D00080914B
S113059013018111D4CF0E9426011E990E940702E3
S11305A08091C00088235CF60E946202C8CFEE0FDF
S11305B0FF1F0590F491E02D09944532510520F474
S11305C0423010F00C94E802FB011082CB01089534
S11305D0BB274A3031F4992322F4BDE290958195EA
S11305E09F4F0C94F402BB27FB015527AA27880FC1
S11305F0991FAA1FA41710F0A41B83955051B9F793
S1130600A05DAA3308F0A95DA193009779F7B11111
S1130610B1931192CB010C940D03DC01FC01672F03
S113062071917723E1F7329704C07C916D937083C5
S11106306291AE17BF07C8F30895F894FFCF88
S111063E032575004C4452203D20000D0A0097
S9030000FC
