S00F000065784D6F746F722E7372656327
S11300000C9434000C9440000C944F000C943E006B
S11300100C943E000C943E000C943E000C943E0064
S11300200C943E000C943E000C943E000C943E0054
S11300300C943E000C943E000C943E000C943E0044
S11300400C943E000C943E000C943E000C943E0034
S11300500C943E000C943E000C943E000C943E0024
S11300600C943E000C943E0011241FBECFEFD8E048
S1130070DEBFCDBF0E945E000C9483000C94000090
S11300801F920F920FB60F9211248F9385B1816046
S113009085B98F910F900FBE0F901F9018951F92E6
S11300A00F920FB60F9211248F9385B18E7F85B96D
S11300B08F910F900FBE0F901F9018958AB18B7F70
S11300C08AB98AB1877F8AB984B1816084B98BB1D6
S11300D084608BB98BB188608BB9E9E6F0E08081EC
S11300E08260808380818E7F80838DB381608DBBAD
S11300F080818860808380818B7F80838DB38260E0
S10D01008DBB7894FFCFF894FFCF75
S9030000FC
