S017000073696D756C61646F2074696D6572312E737265633D
S11300000C9434000C943E000C943E000C943E007E
S11300100C943E000C943E000C943E000C943E0064
S11300200C943E000C943E000C943E000C94400052
S11300300C943E000C943E000C943E000C943E0044
S11300400C943E000C943E000C943E000C943E0034
S11300500C943E000C943E000C943E000C943E0024
S11300600C943E000C943E0011241FBECFEFD8E048
S1130070DEBFCDBF0E946A000C9470000C94000097
S11300801F920F920FB60F9211248F939F9395B1E5
S113009081E0892785B99F918F910F900FBE0F90B2
S11300A01F901895E0E8F0E080818083E1E8F0E0BB
S11300B080818B608083109285001092840081E996
S11300C09BE3909389008093880082E080936F0083
S11300D07894089584B1816084B90E945200FFCF5E
S10700E0F894FFCFBE
S9030000FC
