:100000000C9434000C9446000C9446000C9446006A
:100010000C9446000C9446000C9446000C94460048
:100020000C9446000C9448000C9446000C94460036
:100030000C9446000C9446000C9446000C94460028
:100040000C9446000C9446000C9446000C94460018
:100050000C9446000C9446000C9446000C94460008
:100060000C9446000C94460011241FBECFEFD8E03C
:10007000DEBFCDBF21E0A0E0B1E001C01D92A23003
:10008000B207E1F70E9472000C948D000C940000FE
:100090001F920F920FB60F9211248F939F9380910E
:1000A000000190910101019690930101809300015C
:1000B0009F918F910F900FBE0F901F9018951092E7
:1000C000B000E1EBF0E010828081876080831092C5
:1000D000B20081E080937000789410920101109238
:1000E0000001089584B1816084B90E945F0080910D
:1000F00000019091010189319440C8F38091B200D0
:100100008F30A8F395B181E0892785B91092B200AC
:0E0110001092010110920001EACFF894FFCF87
:00000001FF
